:020000040800F2
:10000000D80600209D010008A71600088F140008DC
:10001000A5160008A9020008092500080000000034
:10002000000000000000000000000000ED1E0008BD
:10003000AB02000800000000C9160008EF1E00080F
:10004000B7010008B7010008B7010008B7010008B0
:10005000B7010008B7010008B7010008B7010008A0
:10006000B7010008B7010008B7010008B701000890
:10007000B7010008B7010008B7010008B701000880
:10008000B7010008B7010008B7010008B701000870
:10009000B7010008B7010008B7010008B701000860
:1000A000B7010008B7010008B7010008B701000850
:1000B000B7010008B7010008B7010008B701000840
:1000C000B7010008B7010008B7010008B701000830
:1000D000B7010008B7010008B7010008B701000820
:1000E000B7010008B7010008B7010008B701000810
:1000F000B7010008B7010008B7010008B701000800
:10010000B7010008B7010008B7010008B7010008EF
:10011000B7010008B7010008B7010008B7010008DF
:10012000B7010008B7010008B7010008B7010008CF
:10013000B70100080000000000000000B70100083F
:10014000B7010008B7010008B7010008B7010008AF
:10015000B7010008B7010008B7010008B70100089F
:10016000B7010008B7010008B7010008B70100088F
:10017000B7010008B70100080000000000000000FF
:10018000B7010008B7010008DFF80CD000F07AF8DA
:100190000048004775250008D8060020064880471B
:1001A00006480047FEE7FEE7FEE7FEE7FEE7FEE75C
:1001B000FEE7FEE7FEE7FEE7791F00088901000879
:1001C0002DE9F05F0546002092469B46884606468C
:1001D000814640241BE0284641464746224600F01F
:1001E00041F853465A46C01A914110D31146184659
:1001F000224600F028F82D1A67EB01084F462246E8
:100200000120002100F01FF817EB00094E41201ECD
:10021000A4F10104DFDC484631462A464346BDE8E6
:10022000F09FD2B201E000F8012B491EFBD27047CB
:100230000022F6E710B513460A4604461946FFF7B2
:10024000F0FF204610BD202A04DB203A00FA02F11C
:10025000002070479140C2F1200320FA03F31943B4
:1002600090407047202A04DB203A21FA02F0002156
:10027000704721FA02F3D040C2F1200291400843B6
:1002800019467047064C074D06E0E06840F0010350
:1002900094E8070098471034AC42F6D3FFF778FF94
:1002A0007826000898260008FEE7704770B50446D7
:1002B00000F0ECF80546601C02D0044800780444C5
:1002C00000F0E4F8401BA042FAD370BD000000200B
:1002D0002DE9F84FDFF87CB100224FF001084FF014
:1002E000030A4FF00F090BF1040E00BF0B6808FA68
:1002F00002F42340A3426ED14D68022D01D0122D8D
:100300000ED1D50800EB850CDCF820505607F70E0F
:1003100009FA07F6B5430E69BE402E43CCF82060BB
:10032000066855000F790AFA05FC07F0030726EA6C
:100330000C06AF40374307604E68012E05D0022EF1
:1003400003D0112E01D0122E0ED18668CF6826EA76
:100350000C06AF40374387604668A6430C79C4F368
:100360000014944034434460C6688C6826EA0C0646
:10037000AC403443C4604C68E40065D5364C256815
:1003800045F480452560246822F0030504F4804488
:100390000094324C2E19D6F8084895072F0F09FA09
:1003A00007F5AC432E4DA84201D1002524E02D4D88
:1003B000A84201D101251FE02B4DA84201D1022501
:1003C0001AE02A4DA84201D1032515E0284DA84284
:1003D00002D1042510E037E0264DA84201D10525C1
:1003E0000AE0254DA84201D1062505E0234DA8428B
:1003F00001D1072500E00825BD402543C6F808586F
:10040000DBF800405D464E689C43F60300D51C4374
:100410002C60DEF8004075464E689C43B60300D55C
:100420001C432C600B4D08352C684E689C43F6022B
:1004300000D51C432C60074D0C352C684E689C433E
:10044000B60200D51C432C60521C102AFFF44EAF9C
:10045000BDE8F88F003C01404438024000300140C4
:10046000000002400004024000080240000C02406C
:10047000001002400014024000180240001C02401C
:100480000AB1816170470904FBE7000001488068F8
:10049000704700000000002070B5040004D094F8FC
:1004A0003D00002510B106E0012070BD84F83C50ED
:1004B000204600F075F8242084F83D00206801688B
:1004C00021F00101016000F0C5F933492268B0FB59
:1004D000F1F15160314A6368934206D94FF4967343
:1004E00059434FF47A73B1FBF3F12368491C196245
:1004F000616891420BD84900B0FBF1F2C2F30B02E4
:10050000042A01D2042019E0B0FBF1F016E0A36840
:100510009BB301EBC10202EB0112B0FBF2F242F419
:100520008042120530D04BB301EBC10202EB011146
:10053000B0FBF1F040F4804040F400402168C86115
:10054000D4E90701084321680860D4E9031008438F
:1005500021688860D4E9050108432168C8602068E3
:10056000016841F0010101602564202084F83D000C
:10057000256384F83E50002070BD00E006E001EBEA
:100580004102B0FBF2F2CCE70120D7E701EB4101D9
:10059000B0FBF1F0D0E7000040420F00A086010060
:1005A00010B586B0044614216846FFF741FE144991
:1005B0002068884221D11348016841F0020101609E
:1005C0000068694600F0020005904FF4407000900A
:1005D0001220019001200290032003900420049037
:1005E0000948FFF775FE07481030016841F4001113
:1005F0000160006800F40010059006B010BD000016
:100600000054004030380240000402400248816833
:100610000278114481607047000000200B4810B53B
:10062000016841F400710160016841F4806101607A
:10063000016841F480710160032000F061F800203E
:1006400000F006F800F024F8002010BD003C024045
:1006500070B50D4D04464FF47A712878B1FBF0F077
:100660000A490968B1FBF0F000F022FD48B9102CEE
:1006700007D200222146501E00F022F800206C60B4
:1006800070BD012070BD0000000000200C000020A3
:100690000A4808B5016841F480410160006800F42F
:1006A000804000900548001F016841F080510160C2
:1006B000006800F08050009008BD000044380240FF
:1006C000F0B40E4B1B680C46C3F30223C3F10705BD
:1006D000042D00D90425191D072901D2002300E0AB
:1006E000DB1E012606FA05F1491E214099409E4075
:1006F000761E16403143F0BC00F0D6BF0CED00E092
:10070000064900F0070208684FF6FF03184040EA68
:100710000220034A10430860704700000CED00E01F
:100720000000FA052DE9F0470E46050065D0DFF818
:100730001481D8F80000F7B200F00F00B04207D2E1
:1007400088F80070D8F8000000F00F00B04254D1D3
:1007500028683D4C810712D5400703D5206840F436
:10076000E05020602878000703D5206840F46040FE
:1007700020602068A96820F0F000084320602878F5
:10078000C0072DD0304968680839012812D00228E6
:1007900013D0032811D00968890700292DDA2168B0
:1007A00021F0030101432160FFF770FE814641F211
:1007B000883A0EE009688903EFE709688901ECE7E8
:1007C000FFF764FEA0EB0901514502D90320BDE803
:1007D000F0872068696800F00C00B0EB810FEFD162
:1007E000D8F80010404601F00F01B14207D9077058
:1007F000006800F00F00B04201D00120E7E7287840
:10080000400705D52068E96820F4E05008432060DF
:100810002878000706D52068296920F4604040EA5E
:10082000C100206000F036F82168084AC1F30311C6
:10083000515CC840064908600020FFF709FF00200E
:10084000C5E70000003C024008380240602600086E
:100850000C0000200448054900680968044AC1F3F7
:100860008221515CC84070470C00002008380240CB
:10087000702600080448054900680968044AC1F365
:100880004231515CC84070470C00002008380240DB
:1008900070260008154810B5006810F00C021448C6
:1008A00013D04110042A0FD0082A0ED10F4C241F58
:1008B0002268236802F03F025B0207D52068C0F37C
:1008C0008810A0FB010106E0084610BD2168C1F3B5
:1008D0008811A1FB00010023FFF772FC2168C1F31E
:1008E0000141491C4900B0FBF1F010BD083802403D
:1008F0000024F4002DE9F84F050076D02878DFF8C1
:10090000F8B2BE4CC00749D0DBF800105846C1F31E
:100910008101012908D00068C0F3810002280AD1B2
:10092000201D0068400206D52068800336D568681F
:100930000028E2D032E06868B0F5803F10D0B0F512
:10094000A02F206810D020F480302060206820F490
:10095000802020606868A0B1FFF798FD06460CE093
:10096000206840F48030F4E740F480202060F7E70E
:10097000FFF78CFD801B642873D820688003F7D5AF
:100980000CE0FFF783FD064605E000BFFFF77EFDA4
:10099000801B6428F0D820688003F7D42878DFF81B
:1009A000608280074FF000093ED5DBF80010584602
:1009B00011F00C0F09D00068C0F3810002280BD1A0
:1009C0008D48001F0068400206D42068800715D5B6
:1009D000E868012809D111E0E868B8B10120C8F839
:1009E0000000FFF753FD064605E002E1FFF74EFD6C
:1009F000801B0228C0D820688007F7D520682969A5
:100A000020F0F80040EAC10020600DE0C8F8009036
:100A1000FFF73CFD064604E0FFF738FD801B022887
:100A20001FD820688007F7D42878000722D5724E97
:100A3000744869696C3671B101210160FFF726FDC8
:100A4000074604E0FFF722FDC01B022809D83068E2
:100A50008007F7D50EE0C0F80090FFF717FD0746B6
:100A600005E083E0FFF712FDC01B02287ED8306846
:100A70008007F7D42878400768D5DFF87CA10027E5
:100A80000AF1380ADAF80000C0000BD4DAF80010D6
:100A900041F08051CAF80010DAF80000012700F098
:100AA00080500090584E3068C00510D4306840F433
:100AB00080703060FFF7EAFC009005E0FFF7E6FC8D
:100AC0000099401A022851D83068C005F6D54A4E20
:100AD000A868683601280FD00528306810D020F0AB
:100AE00001003060306820F004003060A868B8B1C0
:100AF000FFF7CCFC00900FE0306840F00100F4E715
:100B000040F004003060F7E7FFF7C0FC0099411A9D
:100B100041F28830814264D830688007F4D50EE015
:100B2000FFF7B4FC009007E0FFF7B0FC0099411A12
:100B300041F28830814254D830688007F4D42FB114
:100B4000DAF8001021F08051CAF80010A869C0B38B
:100B5000DBF80010C1F3810102294AD0022848467F
:100B600007D0C8F86000FFF791FC00E039E00546C7
:100B70003AE04746C8F86000FFF788FC064604E004
:100B8000FFF784FC801B02282BD820688001F7D453
:100B9000D5E907010843A96A1C4A490802EB01414B
:100BA0006A6A41EA8211084395F82C1040EA016113
:100BB0001148001F016001203866FFF767FC0546F9
:100BC00005E014E0FFF762FC401B022809D820680A
:100BD0008001F7D50BE000BFFFF758FC401B02284F
:100BE00002D90320BDE8F88F20688001F4D40020EA
:100BF000F8E70120F6E7000008380240003802401C
:100C000000004742800E4742007000400000FFFF96
:100C1000FEB5044603200D4684F83400606C0328BA
:100C200020D0B5F5805F1DD0B5F5006F05D045B17A
:100C3000A06B40F00060A06309E0204601F02FF9AE
:100C400002E0204601F004F9A16B0143A163A06B0F
:100C5000012658B1216840F2FF50886384F834605F
:100C60000120FEBDA06B40F08050E4E7211DD4E9D7
:100C700005700EC90095CDE90170206800F041FDB6
:100C800084F834600020FEBDF0B5426E120E930968
:100C90000B70C2F383034B7002F003028A70426E42
:100CA000120CCA70B0F86420120A0A7190F864201D
:100CB0004A71826E4FF6FF73120E03EA0212CA8067
:100CC000826ECB88C2F3074243EA1213CB8002F054
:100CD0000F020A72B0F86820C2F30722D3094B72E0
:100CE000C2F380138B72C2F34013CB72C2F30013B2
:100CF0000B7300264E73446C4FF4007701236CB1E4
:100D0000012C43D0026840F2FF519163816B41F0A6
:100D10008051816380F834300120F0BD9207120DBC
:100D20000A6190F868200C6944EA82020A61C26E86
:100D30000C69120E44EA92140C61C2F3C2040C75E1
:100D400002F007024A75C26EC2F3074254098C755D
:100D5000C2F38204CC759207520F0A76B0F86C2069
:100D6000C2F307240A7E42EAD4120A760A69521CA8
:100D700042650D7EAD1CAA4042650D7A03FA05F569
:100D800085656D0A6A43C0E917271CE090F8682062
:100D90009206920A0A61C26E0C69120E44EA02229D
:100DA0000A61C26E0C69C2F3074214430C61B0F8C9
:100DB0006C20C2F307240A69521C4FEA8222426562
:100DC000C0E916720766C4F3801201F8192F4FEAC2
:100DD00084624FEA52624A7010F86C2F4C7844EAF1
:100DE000D2144C7002F07F028A7042684FEA12629D
:100DF0004FEAD214CC70C2F341140C71C2F38204D6
:100E00004C714FEA82724FEA12728A7142688C7991
:100E1000C2F3074244EA92148C71C2F34014CC71BD
:100E20000E7202F001024A728288C2F307224FEA70
:100E3000D2148C72C2F38014CC72C2F340140C73BF
:100E4000C2F300144C73C2F381048C7302F00302EA
:100E5000CA7300794FEA500008744B744FF00000D9
:100E6000F0BD70B5040004D094F83400002510B132
:100E700005E0012070BD2577204600F037F80320FB
:100E800084F83400204600F007F8A56325630120AC
:100E900084F83400002070BDFEB50025044676209D
:100EA0000095CDE901502B462A462946206800F0DE
:100EB00028FC0D4E46F8A05F206800F034FC0125A8
:100EC00035600220FFF7F2F9204600F070FF20B9EC
:100ED000204600F0F9FE002805D084F83450A16BBC
:100EE0000143A1630120FEBD00802542F0B587B01B
:100EF000044614216846FFF79BF91D492068884283
:100F000033D11C480024016841F40061016000688D
:100F100000F40060059017481438016841F004019E
:100F20000160016801F004010591016841F00801C8
:100F300001600068022500F0080005904FF4F850A9
:100F4000CDE9000502AA03260C2782E8D0006946F5
:100F50000948FFF7BDF90420CDE9000502AA69465A
:100F600082E8D0000548FFF7B3F907B0F0BD0000F4
:100F7000002C01404438024000080240000C0240AE
:100F800070B5040005D00025A56294F8510010B199
:100F900006E0012070BD84F85050204600F030F883
:100FA000022084F851002068016821F040010160AE
:100FB000D4E901010843D4E90312114308436169EC
:100FC0000843218B01F400710843E1690843216A59
:100FD0000843A16A084321680860A069042101EA66
:100FE0001040616A0843216848602068C16921F4A3
:100FF0000061C1616565012084F85100002070BD69
:1010000070B586B0044614216846FFF711F9234EE7
:10101000226800212248022303240525B2421AD166
:101020001F4A1432166846F480561660126802F49D
:1010300080520592026842F001020260006802AA32
:1010400000F00100059082E83200E020CDE90003C5
:10105000694614481DE0144EB2421CD1104A1032A9
:10106000166846F480461660126802F480420592C3
:10107000026842F002020260006802AA00F0020068
:10108000059082E832004FF47040CDE900036946D4
:101090000648FFF71DF906B070BD000000300140A2
:1010A0003038024000000240003800400004024096
:1010B00010B5401EB0F1807F01D3012010BD4FF06C
:1010C000E02460610F21601700F0EEFA0020A061BB
:1010D00007202061002010BD30B590F83820012A8B
:1010E00020D0012280F83820022380F839300368AC
:1010F0005C6824F070045C6003685C680D682C43D5
:101100005C6003689C6824F080049C6003689C68B1
:1011100049680C439C6080F83920002180F8381021
:10112000084630BD022030BDF0B587B0044614211A
:101130006846FFF77DF82068002421490225214EEA
:10114000B0F1804F16D0204A904211D1086840F08B
:10115000020008600868694600F00200059033202C
:101160000090CDE901543046CDE90345FFF7B0F8D2
:1011700007B0F0BD086840F001000860086800F0A2
:1011800001000590086840F0020008600868012727
:1011900000F00200059003200090CDE90154CDE954
:1011A000034769460948FFF793F84FF44060009001
:1011B000CDE90154CDE9034769463046D6E7000042
:1011C00030380240000402400004004000000240A9
:1011D00070B5044690F8380001280DD0012584F838
:1011E0003850022084F8390042B1042A0AD0082A73
:1011F0000CD00C2A11D10DE0022070BD206800F047
:1012000045FF0AE0206800F06DFF06E0206800F06E
:101210009BFF02E0206800F0C7FF84F839500020EF
:1012200084F8380070BD10B5040003D094F839007C
:1012300010B107E0012010BD002084F838002046DE
:1012400000F00CF8022084F83900211D206800F01D
:10125000BDFE012084F83900002010BD08B50168EA
:101260000B48B1F1804F0BD00A4A914207D1016877
:1012700041F002010160006800F00200009008BD2A
:10128000016841F001010160006800F00100F5E72C
:10129000403802400004004070B5040004D094F8C7
:1012A0003900002510B106E0012070BD84F83850E7
:1012B000204600F023F8242084F839002068C16813
:1012C00021F40051C160204600F096FF20680169BA
:1012D00021F4904101612068416921F02A014161B6
:1012E0002068C16841F40051C160E563202084F8A2
:1012F000390084F83A00002070BD0000F0B587B0D6
:10130000044614216846FEF793FF2D49DFF8ACC070
:1013100027682B4A1439022301240325072629486C
:10132000674511D1176847F010071760126802F07F
:10133000100205920A6842F001020A60096801F091
:1013400001010591690216E0DFF87CC0674519D1FB
:101350001B4A121F176847F400371760126802F41F
:10136000003205920A6842F001020A60096801F041
:10137000010105910C218DE87A006946FEF7A8FF6E
:1013800007B0F0BD11488742FAD1106840F0200044
:101390001060106800F020000590086840F004001C
:1013A00008600868694600F004000590C0208DE8D8
:1013B0003900082004900648E0E7000000100140D2
:1013C0004438024000000240004400400014014044
:1013D000000802402DE9F843044690F839001F4602
:1013E00016460D46202850D1A5B19EB194F838007C
:1013F00001284AD0012084F838004FF00008C4F8D2
:101400003C80212084F83900FFF740F8A68481460B
:10141000E68426E00120BDE8F883E08C401EE084ED
:10142000A0684B46B0F5805F4FF000024FF080019E
:101430002046009703D001F035F8E8B90DE001F03F
:1014400031F8C8B928882168C0F3080048602069CD
:1014500008B16D1C05E0AD1C03E0216815F8010B17
:101460004860E08C0028D8D14B460022402120461D
:10147000009701F017F808B10320CCE7202084F88A
:10148000390084F838800020C5E70220C3E7FEE772
:10149000F0B587B014216846FEF7CAFE2A4800243A
:1014A000016841F004010160016801F00401059147
:1014B000016841F080010160016801F0800105913F
:1014C000016841F001010160016801F0010105912D
:1014D000016841F002010160016801F0020105911B
:1014E000016841F0080101600068184E00F0080032
:1014F0000590002233213046FEF7C2FF144F002230
:1015000010213846FEF7BCFF4FF4C0400090114850
:10151000CDE9010469463046FEF7DAFE332000903B
:101520000125CDE90154694630460394FEF7D0FE0B
:1015300010200090CDE90154694638460394FEF727
:10154000C7FE07B0F0BD000030380240000802407E
:1015500000000240000011100B480A494FF40072CD
:1015600001604FF48271416000218160C1600161BE
:10157000C0E90512C1610162416281620A21C16252
:10158000FFF7FEBC00300140EC0000200B480A4988
:101590004FF4802201604FF482714160002181602C
:1015A000C1600161C0E90512C161016241628162ED
:1015B0000A21C162FFF7E4BC00380040440100206A
:1015C00010B58AB0002407941C2168460894FEF7E1
:1015D0002FFE16484FF08041C0E900148460C460BB
:1015E0000461FFF720FE079407A910480894FFF74D
:1015F00073FD009401940294002269460B48049400
:10160000FFF7E6FD042269460848FFF7E1FD0822DE
:1016100069460648FFF7DCFD0C2269460348FFF7E0
:10162000D7FD0248FFF780FD0AB010BD9C010020E5
:1016300010B58AB0002407941C2168460894FEF770
:10164000F7FD17481549C0E900148460C4600461BF
:10165000FFF7E9FD079407A911480894FFF73CFD3F
:10166000009401940294002269460D480494FFF707
:10167000AFFD042269460A48FFF7AAFD0822694621
:101680000748FFF7A5FD0C2269460548FFF7A0FDB6
:101690000348FFF749FD0AB010BD000000040040F8
:1016A000D8010020FEE770470907090E002806DA76
:1016B00000F00F0000F1E02080F8141D704700F1E9
:1016C000E02080F80014704770470A6842624A6858
:1016D0008262D1E902231A43D1E904310B43C16A82
:1016E0001A4321F0F7011143C162002070470068DE
:1016F00000F00300704708B50844143000900068FB
:1017000008BD70B50DF1100C11439CE87000234327
:10171000194329434268314347F6FF639A430A431A
:101720004260002070BD0321016000207047D0F8A6
:10173000800070470A688260D1E901231A43D1E929
:1017400003310B43C1681A436FF30B011143C160AE
:101750000020704710B586B004463720CDE9001050
:1017600040200290002003904FF48060049069466E
:101770002046FFF7DFFF41F288323721204600F094
:1017800021F906B010BD000010B504460A4886B025
:1017900001432920CDE90010402002900020039051
:1017A0004FF48060049069462046FFF7C3FF20464F
:1017B00000F0BEF906B010BD0000108010B586B074
:1017C00004461020CDE90010402002900020039034
:1017D0004FF48060049069462046FFF7ABFF41F26A
:1017E00088321021204600F0EDF806B010BD10B58B
:1017F00086B004460620CDE900104020029000206B
:1018000003904FF48060049069462046FFF792FFF2
:1018100041F288320621204600F0D4F806B010BD0F
:1018200030B585B000240546009401944FF48060E3
:101830000294CDE9034069462846FFF77BFF0B4839
:101840004FF4FA510068B0FBF1F041F2883148439F
:10185000401E03D24FF0004005B030BD696B090651
:10186000F6D540F2FF50A8632046F5E70C000020B3
:1018700070B585B004464FF4D5700090082040261E
:10188000CDE901060025C001CDE903506946204697
:10189000FFF750FF0F484FF4FA510068B0FBF1F02A
:1018A00041F288314843401E02D24FF000450DE01E
:1018B000616B11F0450FF6D0606B400702D5A6634F
:1018C000042503E0606B400600D5A66305B02846FA
:1018D00070BD00000C00002010B586B00446072043
:1018E000CDE9002040200290002003904FF480605A
:1018F000049069462046FFF71DFF41F28832072118
:10190000204600F05FF806B010BD10B586B0044662
:1019100000210220CDE90010C020CDE902014FF4E2
:101920008060049069462046FFF704FF204600F0DF
:10193000D7F806B010BD10B586B004460920CDE931
:101940000010C0200290002003904FF480600490AB
:1019500069462046FFF7EEFE204600F0C1F806B0CB
:1019600010BD10B586B0044600213320CDE900102B
:101970004020CDE902010001049069462046FFF7AE
:10198000D9FE41F288323321204600F01BF806B020
:1019900010BD30B585B00C46054600210320CDE9C9
:1019A00000104020CDE9020100010490694628465C
:1019B000FFF7C0FE22460321284600F0D9F805B003
:1019C00030BD0000444B10B51B684FF4FA54B3FB14
:1019D000F4F353435B1E02D24FF0004010BD426B44
:1019E00012F0450FF6D0426B520703D504218163F4
:1019F000084610BD426BD20702D00121816303E08B
:101A00000269D2B28A4201D0012010BD40F2FF51DA
:101A100081630021FFF76FFE3049084201D10020A9
:101A200010BD002802DA4FF0007010BD410001D552
:101A3000402010BD810001D5802010BDC10002D51D
:101A40004FF4807010BD010102D54FF4007010BD3D
:101A5000410102D54FF4806010BDC10102D54FF4A1
:101A6000006010BD010202D54FF4805010BD41024C
:101A700002D54FF4005010BD810202D54FF48040D2
:101A800010BDC10202D54FF4004010BD410302D584
:101A90004FF4003010BD810302D54FF4802010BDFB
:101AA000C10302D54FF4002010BD010402D54FF44C
:101AB000801010BD410402D54FF4001010BD810408
:101AC00002D54FF4800010BD000702D54FF400008E
:101AD00010BD4FF4803010BD0C00002008E0FFFD69
:101AE00012494FF4FA520968B1FBF2F141F288321F
:101AF0005143491E02D24FF000407047426B12F032
:101B0000450FF6D0416B490703D504218163084690
:101B10007047416BC90703D00121816308467047B4
:101B200040F2FF5181630020704700000C0000204C
:101B30000E494FF4FA520968B1FBF2F141F28832D2
:101B40005143491E02D24FF000407047426B12F0E1
:101B5000450FF6D0416B490703D504218163084640
:101B6000704740F2FF518163002070470C00002055
:101B70001F4B10B51B684FF4FA54B3FBF4F341F25A
:101B8000883463435B1E02D24FF0004010BD446BAB
:101B900014F0450FF6D0436B5B0703D50421816336
:101BA000084610BD436BDB0702D00121816303E0CF
:101BB0000369DBB28B4201D0012010BD40F2FF511E
:101BC00081630021FFF797FD10F4604F04D04104BA
:101BD00006D54FF4005010BD000C1080002010BD41
:101BE000000402D54FF4805010BD4FF4803010BD7A
:101BF0000C0000202DE9F04F89B00E460446FEF798
:101C000045FC00258346009501952F460821206854
:101C1000FFF7D4FD002834D1B4F850000104206847
:101C2000FFF798FD00282CD1401E4FF00808CDE9A1
:101C3000020830204FF00209CDE904090120CDE966
:101C4000067002A92068FFF740FD2068FFF789FEB3
:101C5000002816D1EA4640F22A472068416B3942F3
:101C600012D1416B890204D5FFF761FD4AF82500C6
:101C70006D1CFEF70BFCA0EB0B00401CEDD14FF0F0
:101C8000004009B0BDE8F08F416B090703D5C0F8EB
:101C900038800820F5E7416B890703D5C0F83890F4
:101CA0000220EEE7416B890603D5202181630846B7
:101CB000E7E740F2FF518163009800BA7060019835
:101CC00000BA30600020DCE710B590B00446012077
:101CD000ADF838002068FFF70AFD002864D0606C7A
:101CE000032842D02068FFF710FE00285AD10021B7
:101CF0002068FFF700FD606704212068FFF7FBFC08
:101D0000A06708212068FFF7F6FCE0670C21206837
:101D1000FFF7F1FCC4F88000606C032825D00EA901
:101D20002068FFF736FE00283CD1606C03281CD0E9
:101D3000BDF83800206501042068FFF7FCFD00288D
:101D400030D100212068FFF7D6FC606604212068AE
:101D5000FFF7D1FCA06608212068FFF7CCFCE06605
:101D60000C212068FFF7C7FC206704212068FFF7DB
:101D7000C2FC000DE06403A92046FEF785FFB4F81D
:101D80005000002302042068FFF7A6FD002809D1B7
:101D900004F1100007C88DE8070094E80F00FFF772
:101DA000B0FC002010B010BD4FF08060FAE72DE9C4
:101DB000F8430025044600950068FFF731FD002830
:101DC0001AD12068FFF754FD4FF080784FF6FF7668
:101DD000D8B14FF08057A5640098411C0091B042E3
:101DE0001AD000212068FFF7B5FC20B90021206837
:101DF000FFF7CAFC10B13846BDE8F883002120681F
:101E0000FFF779FCC00FE7D01FE00127A764009817
:101E1000411C0091B04201D14046EDE7002120680D
:101E2000FFF798FC0028E7D14FF080412068FFF7CA
:101E3000ABFC0028E0D100212068FFF75CFCC10F5B
:101E4000E5D0400001D5676400E065640020D3E779
:101E50001CB5044600200090019000212068FFF787
:101E60004AFC800102D54FF400601CBD6946204643
:101E7000FFF7C0FE0028F8D10198C0030CD5B4F8D4
:101E8000500001042068FFF765FC0028EDD1002117
:101E90002068FFF7ACFC1CBD4FF080601CBD1CB57A
:101EA000044600200090019000212068FFF723FCE9
:101EB000800102D54FF400601CBD69462046FFF743
:101EC00099FE0028F8D1019840030CD5B4F85000D1
:101ED00001042068FFF73EFC0028EDD102212068B4
:101EE000FFF785FC1CBD4FF080601CBD7047FEF7FE
:101EF0008DBB000030B593B030216846FEF798F9ED
:101F000014210CA8FEF794F919480025016841F046
:101F100080510160006800F0805011901548016800
:101F200041F4804101600068022400F48040119077
:101F300001200090000401908001CDE906400420BA
:101F40000890A820CDE9090407200B906846FEF709
:101F5000D1FC0CA90F2081E831004FF4A0500F9064
:101F6000E002109005210CA8FEF7DCFB13B030BD99
:101F700040380240007000401048016841F4700190
:101F800001600F48016841F0010101600C4A002125
:101F90000832116002680B4B1A400260031D0A4AA6
:101FA0001A60026822F48022026005480C30016049
:101FB00002495806803908607047000088ED00E04B
:101FC00000380240FFFFF6FE10300024F0B5026832
:101FD000234B244D244E254F254C4FF0804C9842E6
:101FE00009D0604507D0A84205D0B04203D0B8421E
:101FF00001D0A04204D122F0700E4A6842EA0E02DB
:1020000098421BD0604519D0A84217D0B04215D0D5
:10201000B84213D0A04211D0164DA8420ED0164D92
:10202000A8420BD0154DA84208D0154DA84205D0A6
:10203000144DA84202D0144DA84203D122F4407599
:10204000CA682A4302608A68C2620A688262984249
:1020500001D0A04201D10969016301214161F0BDB4
:10206000000001400004004000080040000C004057
:10207000000401400040014000440140004801408C
:1020800000180040001C00400020004030B5026AEB
:1020900022F001020262026A436884690D6824F03A
:1020A0007304254322F002048A6822430B4CA042A9
:1020B00002D00B4CA0420BD122F00804CA6823F4D2
:1020C000407322434C6922F004021C438B69234372
:1020D0004360856149684163026230BD0000014090
:1020E0000004014030B5026A22F010020262026A66
:1020F000436884690D6824F4E64444EA05248D6845
:1021000022F0200242EA05120D4DA84202D00D4DE8
:10211000A8420ED1CD6822F0800242EA05124D6934
:1021200023F4406343EA85038D6922F0400243EAC9
:1021300085034360846149688163026230BD0000A9
:10214000000001400004014030B5026A22F48072B0
:102150000262036A4268C46923F4007324F07305C1
:102160000C682C438D6843EA05230D4DA84202D02C
:102170000C4DA8420ED1CD6823F4006343EA052339
:102180004D6922F4405242EA05128D6923F48063BE
:1021900042EA05124260C4614968C163036230BD0E
:1021A000000001400004014030B5026A22F4805270
:1021B0000262046A4268C3690D6823F4E64343EA95
:1021C00005238D6824F4005444EA0534084DA842E0
:1021D00002D0084DA84204D14D6922F4804242EA5F
:1021E00085124260C36149680164046230BD000029
:1021F00000000140000401402DE9F0410446006860
:10220000016921F44052E168114301612168C86805
:1022100049F20C6290432369A268E5691A43636935
:102220002B431A430243CA602168486920F4407274
:10223000A06910434861E1696425B1F5004F9748F2
:10224000974A21684FF032083FD0914201D0814235
:102250007CD1FEF70FFB00EBC00101EB00106168C1
:102260008900B0FBF1F6FEF705FB00EBC00101EBC6
:10227000001061688900B0FBF1F0B0FBF5F06FF081
:102280001801484306EB800108EB0110B0FBF5F0A4
:1022900000F0F006FEF7EEFA00EBC00101EB0010D3
:1022A00061688900B0FBF1F0B0FBF5F006EB0016B9
:1022B000FEF7E0FA00EBC00101EB00106168890055
:1022C000B0FBF1F7FEF7D6FAD2E0914201D081429D
:1022D0003DD1FEF7CFFA00EBC00101EB00106168C1
:1022E0004900B0FBF1F0B0FBF5F00601FEF7C2FAD1
:1022F00000EBC00101EB001061684900B0FBF1F791
:10230000FEF7B8FA00EBC00101EB0010616849006C
:10231000B0FBF1F0B0FBF5F06FF01801484307EBAC
:10232000800108EBC100B0FBF5F000F0F80006EB0F
:102330004006FEF79FFA00EBC00101EB0010616858
:102340004900B0FBF1F7FEF795FA3CE055E0FEF7E7
:1023500081FA00EBC00101EB001061684900B0FB9D
:10236000F1F0B0FBF5F00601FEF774FA00EBC001E6
:1023700001EB001061684900B0FBF1F7FEF76AFA63
:1023800000EBC00101EB001061684900B0FBF1F007
:10239000B0FBF5F06FF01801484307EB800108EB44
:1023A000C100B0FBF5F000F0F80006EB4006FEF7C8
:1023B00051FA00EBC00101EB001061684900B0FB6D
:1023C000F1F7FEF747FA00EBC00101EB001061687E
:1023D0004900B0FBF1F0B0FBF5F06FF01801484395
:1023E00007EB800108EBC100B0FBF5F000F007003F
:1023F000216830448860BDE8F081FEF72BFA00EBDD
:10240000C00101EB001061688900B0FBF1F6FEF736
:1024100021FA00EBC00101EB001061688900B0FBFC
:10242000F1F0B0FBF5F06FF01801484306EB8001C6
:1024300008EB0110B0FBF5F000F0F006FEF70AFA29
:1024400000EBC00101EB001061688900B0FBF1F006
:10245000B0FBF5F006EB0016FEF7FCF900EBC0014F
:1024600001EB001061688900B0FBF1F7FEF7F2F9AB
:1024700000EBC00101EB001061688900B0FBF1F0D6
:10248000B0FBF5F06FF01801484307EB800108EB53
:102490000110B0FBF5F000F00F00A9E700140140B7
:1024A000001001402DE9F041984617460E460446BB
:1024B000069D1DE0681C1BD02DB1FDF7E7FFA0EBCA
:1024C0000800A84214D92068C16821F4D071C16005
:1024D0002068416921F001014161202084F8390020
:1024E00084F83A00002084F838000320BDE8F08129
:1024F0002068006836EA000004D00020B842D9D035
:102500000020F3E70120F9E7FEE70000014A024955
:1025100000F013B85D2500081000002002E008C894
:10252000121F08C1002AFAD170477047002001E04D
:1025300001C1121F002AFBD170472DE9F041164658
:102540000F460446002503E03946B047641C6D1C65
:1025500020780028F8D12846BDE8F08113B50A2379
:10256000012269460248FEF735FF00981CBD0000B5
:1025700014020020FEF752F8FFF7BCFCFEF788FFBC
:102580002E482D494FF4E13500240160C0E9015483
:102590000C26C460C0E904468461C461FEF77CFE79
:1025A0002648274940300160C0E90154C460C0E9B1
:1025B00004468461C461FEF76FFEFEF7CDFF22483A
:1025C0002049C0E900148460C460046144618461EE
:1025D000FEF747FC4FF400611B48FEF719FB174854
:1025E0001A4980300160C0E90154C460C0E9044662
:1025F0008461C461FEF750FEFEF7C8FF124814491B
:10260000543801601349C0E901144FF48041C0E916
:10261000034144618461C4610462FDF73DFFFEF73C
:10262000CFFFFFF705F84FF4FA740BA0FFF76EFF2A
:102630002046FDF73BFEF8E70010014014020020A1
:1026400000440040002C01406800002000140140BC
:1026500000540040A086010068656C6C6F0A0000A1
:102660000000000000000000010203040607080942
:10267000000000000102030498260008000000206A
:10268000140000001C250008AC26000814000020DF
:10269000C40600002C250008010000001000000006
:0C26A000000000000024F4000000000016
:040000050800018965
:00000001FF
